{
  "_format": "hh-sol-artifact-1",
  "contractName": "BrainFriendNFT",
  "sourceName": "contracts/BrainFriendNFT.sol",
  "abi": [
    {
      "inputs": [],
      "stateMutability": "nonpayable",
      "type": "constructor"
    },
    {
      "anonymous": false,
      "inputs": [
        {
          "indexed": true,
          "internalType": "address",
          "name": "owner",
          "type": "address"
        },
        {
          "indexed": true,
          "internalType": "address",
          "name": "approved",
          "type": "address"
        },
        {
          "indexed": true,
          "internalType": "uint256",
          "name": "tokenId",
          "type": "uint256"
        }
      ],
      "name": "Approval",
      "type": "event"
    },
    {
      "anonymous": false,
      "inputs": [
        {
          "indexed": true,
          "internalType": "address",
          "name": "owner",
          "type": "address"
        },
        {
          "indexed": true,
          "internalType": "address",
          "name": "operator",
          "type": "address"
        },
        {
          "indexed": false,
          "internalType": "bool",
          "name": "approved",
          "type": "bool"
        }
      ],
      "name": "ApprovalForAll",
      "type": "event"
    },
    {
      "anonymous": false,
      "inputs": [
        {
          "indexed": true,
          "internalType": "address",
          "name": "previousOwner",
          "type": "address"
        },
        {
          "indexed": true,
          "internalType": "address",
          "name": "newOwner",
          "type": "address"
        }
      ],
      "name": "OwnershipTransferred",
      "type": "event"
    },
    {
      "anonymous": false,
      "inputs": [
        {
          "indexed": true,
          "internalType": "address",
          "name": "from",
          "type": "address"
        },
        {
          "indexed": true,
          "internalType": "address",
          "name": "to",
          "type": "address"
        },
        {
          "indexed": true,
          "internalType": "uint256",
          "name": "tokenId",
          "type": "uint256"
        }
      ],
      "name": "Transfer",
      "type": "event"
    },
    {
      "inputs": [],
      "name": "MAX_SUPPLY",
      "outputs": [
        {
          "internalType": "uint256",
          "name": "",
          "type": "uint256"
        }
      ],
      "stateMutability": "view",
      "type": "function"
    },
    {
      "inputs": [
        {
          "internalType": "address",
          "name": "to",
          "type": "address"
        },
        {
          "internalType": "uint256",
          "name": "tokenId",
          "type": "uint256"
        }
      ],
      "name": "approve",
      "outputs": [],
      "stateMutability": "nonpayable",
      "type": "function"
    },
    {
      "inputs": [
        {
          "internalType": "address",
          "name": "owner",
          "type": "address"
        }
      ],
      "name": "balanceOf",
      "outputs": [
        {
          "internalType": "uint256",
          "name": "",
          "type": "uint256"
        }
      ],
      "stateMutability": "view",
      "type": "function"
    },
    {
      "inputs": [
        {
          "internalType": "uint256",
          "name": "tokenId",
          "type": "uint256"
        }
      ],
      "name": "getApproved",
      "outputs": [
        {
          "internalType": "address",
          "name": "",
          "type": "address"
        }
      ],
      "stateMutability": "view",
      "type": "function"
    },
    {
      "inputs": [
        {
          "internalType": "address",
          "name": "owner",
          "type": "address"
        },
        {
          "internalType": "address",
          "name": "operator",
          "type": "address"
        }
      ],
      "name": "isApprovedForAll",
      "outputs": [
        {
          "internalType": "bool",
          "name": "",
          "type": "bool"
        }
      ],
      "stateMutability": "view",
      "type": "function"
    },
    {
      "inputs": [
        {
          "internalType": "uint256",
          "name": "amount",
          "type": "uint256"
        }
      ],
      "name": "mintMultipleNFTs",
      "outputs": [],
      "stateMutability": "nonpayable",
      "type": "function"
    },
    {
      "inputs": [],
      "name": "name",
      "outputs": [
        {
          "internalType": "string",
          "name": "",
          "type": "string"
        }
      ],
      "stateMutability": "view",
      "type": "function"
    },
    {
      "inputs": [],
      "name": "owner",
      "outputs": [
        {
          "internalType": "address",
          "name": "",
          "type": "address"
        }
      ],
      "stateMutability": "view",
      "type": "function"
    },
    {
      "inputs": [
        {
          "internalType": "uint256",
          "name": "tokenId",
          "type": "uint256"
        }
      ],
      "name": "ownerOf",
      "outputs": [
        {
          "internalType": "address",
          "name": "",
          "type": "address"
        }
      ],
      "stateMutability": "view",
      "type": "function"
    },
    {
      "inputs": [],
      "name": "renounceOwnership",
      "outputs": [],
      "stateMutability": "nonpayable",
      "type": "function"
    },
    {
      "inputs": [
        {
          "internalType": "address",
          "name": "to",
          "type": "address"
        }
      ],
      "name": "safeMint",
      "outputs": [],
      "stateMutability": "payable",
      "type": "function"
    },
    {
      "inputs": [
        {
          "internalType": "address",
          "name": "from",
          "type": "address"
        },
        {
          "internalType": "address",
          "name": "to",
          "type": "address"
        },
        {
          "internalType": "uint256",
          "name": "tokenId",
          "type": "uint256"
        }
      ],
      "name": "safeTransferFrom",
      "outputs": [],
      "stateMutability": "nonpayable",
      "type": "function"
    },
    {
      "inputs": [
        {
          "internalType": "address",
          "name": "from",
          "type": "address"
        },
        {
          "internalType": "address",
          "name": "to",
          "type": "address"
        },
        {
          "internalType": "uint256",
          "name": "tokenId",
          "type": "uint256"
        },
        {
          "internalType": "bytes",
          "name": "data",
          "type": "bytes"
        }
      ],
      "name": "safeTransferFrom",
      "outputs": [],
      "stateMutability": "nonpayable",
      "type": "function"
    },
    {
      "inputs": [
        {
          "internalType": "address",
          "name": "operator",
          "type": "address"
        },
        {
          "internalType": "bool",
          "name": "approved",
          "type": "bool"
        }
      ],
      "name": "setApprovalForAll",
      "outputs": [],
      "stateMutability": "nonpayable",
      "type": "function"
    },
    {
      "inputs": [
        {
          "internalType": "bytes4",
          "name": "interfaceId",
          "type": "bytes4"
        }
      ],
      "name": "supportsInterface",
      "outputs": [
        {
          "internalType": "bool",
          "name": "",
          "type": "bool"
        }
      ],
      "stateMutability": "view",
      "type": "function"
    },
    {
      "inputs": [],
      "name": "symbol",
      "outputs": [
        {
          "internalType": "string",
          "name": "",
          "type": "string"
        }
      ],
      "stateMutability": "view",
      "type": "function"
    },
    {
      "inputs": [
        {
          "internalType": "uint256",
          "name": "index",
          "type": "uint256"
        }
      ],
      "name": "tokenByIndex",
      "outputs": [
        {
          "internalType": "uint256",
          "name": "",
          "type": "uint256"
        }
      ],
      "stateMutability": "view",
      "type": "function"
    },
    {
      "inputs": [
        {
          "internalType": "address",
          "name": "owner",
          "type": "address"
        },
        {
          "internalType": "uint256",
          "name": "index",
          "type": "uint256"
        }
      ],
      "name": "tokenOfOwnerByIndex",
      "outputs": [
        {
          "internalType": "uint256",
          "name": "",
          "type": "uint256"
        }
      ],
      "stateMutability": "view",
      "type": "function"
    },
    {
      "inputs": [
        {
          "internalType": "uint256",
          "name": "tokenId",
          "type": "uint256"
        }
      ],
      "name": "tokenURI",
      "outputs": [
        {
          "internalType": "string",
          "name": "",
          "type": "string"
        }
      ],
      "stateMutability": "view",
      "type": "function"
    },
    {
      "inputs": [],
      "name": "totalSupply",
      "outputs": [
        {
          "internalType": "uint256",
          "name": "",
          "type": "uint256"
        }
      ],
      "stateMutability": "view",
      "type": "function"
    },
    {
      "inputs": [
        {
          "internalType": "address",
          "name": "from",
          "type": "address"
        },
        {
          "internalType": "address",
          "name": "to",
          "type": "address"
        },
        {
          "internalType": "uint256",
          "name": "tokenId",
          "type": "uint256"
        }
      ],
      "name": "transferFrom",
      "outputs": [],
      "stateMutability": "nonpayable",
      "type": "function"
    },
    {
      "inputs": [
        {
          "internalType": "address",
          "name": "newOwner",
          "type": "address"
        }
      ],
      "name": "transferOwnership",
      "outputs": [],
      "stateMutability": "nonpayable",
      "type": "function"
    },
    {
      "inputs": [],
      "name": "withdraw",
      "outputs": [],
      "stateMutability": "nonpayable",
      "type": "function"
    }
  ],
  "bytecode": "0x6080604052614e20600c553480156200001757600080fd5b506040518060400160405280600e81526020017f427261696e467269656e644e46540000000000000000000000000000000000008152506040518060400160405280600381526020017f4246440000000000000000000000000000000000000000000000000000000000815250816000908162000095919062000418565b508060019081620000a7919062000418565b505050620000ca620000be620000d060201b60201c565b620000d860201b60201c565b620004ff565b600033905090565b6000600a60009054906101000a900473ffffffffffffffffffffffffffffffffffffffff16905081600a60006101000a81548173ffffffffffffffffffffffffffffffffffffffff021916908373ffffffffffffffffffffffffffffffffffffffff1602179055508173ffffffffffffffffffffffffffffffffffffffff168173ffffffffffffffffffffffffffffffffffffffff167f8be0079c531659141344cd1fd0a4f28419497f9722a3daafe3b4186f6b6457e060405160405180910390a35050565b600081519050919050565b7f4e487b7100000000000000000000000000000000000000000000000000000000600052604160045260246000fd5b7f4e487b7100000000000000000000000000000000000000000000000000000000600052602260045260246000fd5b600060028204905060018216806200022057607f821691505b602082108103620002365762000235620001d8565b5b50919050565b60008190508160005260206000209050919050565b60006020601f8301049050919050565b600082821b905092915050565b600060088302620002a07fffffffffffffffffffffffffffffffffffffffffffffffffffffffffffffffff8262000261565b620002ac868362000261565b95508019841693508086168417925050509392505050565b6000819050919050565b6000819050919050565b6000620002f9620002f3620002ed84620002c4565b620002ce565b620002c4565b9050919050565b6000819050919050565b6200031583620002d8565b6200032d620003248262000300565b8484546200026e565b825550505050565b600090565b6200034462000335565b620003518184846200030a565b505050565b5b8181101562000379576200036d6000826200033a565b60018101905062000357565b5050565b601f821115620003c85762000392816200023c565b6200039d8462000251565b81016020851015620003ad578190505b620003c5620003bc8562000251565b83018262000356565b50505b505050565b600082821c905092915050565b6000620003ed60001984600802620003cd565b1980831691505092915050565b6000620004088383620003da565b9150826002028217905092915050565b62000423826200019e565b67ffffffffffffffff8111156200043f576200043e620001a9565b5b6200044b825462000207565b620004588282856200037d565b600060209050601f8311600181146200049057600084156200047b578287015190505b620004878582620003fa565b865550620004f7565b601f198416620004a0866200023c565b60005b82811015620004ca57848901518255600182019150602085019450602081019050620004a3565b86831015620004ea5784890151620004e6601f891682620003da565b8355505b6001600288020188555050505b505050505050565b613613806200050f6000396000f3fe6080604052600436106101405760003560e01c80634f6ccce7116100b657806395d89b411161006f57806395d89b411461044d578063a22cb46514610478578063b88d4fde146104a1578063c87b56dd146104ca578063e985e9c514610507578063f2fde38b1461054457610140565b80634f6ccce71461032b5780636352211e146103685780636a0a0a36146103a557806370a08231146103ce578063715018a61461040b5780638da5cb5b1461042257610140565b806323b872dd1161010857806323b872dd1461023e5780632f745c591461026757806332cb6b0c146102a45780633ccfd60b146102cf57806340d097c3146102e657806342842e0e1461030257610140565b806301ffc9a71461014557806306fdde0314610182578063081812fc146101ad578063095ea7b3146101ea57806318160ddd14610213575b600080fd5b34801561015157600080fd5b5061016c60048036038101906101679190612435565b61056d565b604051610179919061247d565b60405180910390f35b34801561018e57600080fd5b5061019761057f565b6040516101a49190612528565b60405180910390f35b3480156101b957600080fd5b506101d460048036038101906101cf9190612580565b610611565b6040516101e191906125ee565b60405180910390f35b3480156101f657600080fd5b50610211600480360381019061020c9190612635565b610657565b005b34801561021f57600080fd5b5061022861076e565b6040516102359190612684565b60405180910390f35b34801561024a57600080fd5b506102656004803603810190610260919061269f565b61077b565b005b34801561027357600080fd5b5061028e60048036038101906102899190612635565b6107db565b60405161029b9190612684565b60405180910390f35b3480156102b057600080fd5b506102b9610880565b6040516102c69190612684565b60405180910390f35b3480156102db57600080fd5b506102e4610886565b005b61030060048036038101906102fb91906126f2565b610921565b005b34801561030e57600080fd5b506103296004803603810190610324919061269f565b6109dd565b005b34801561033757600080fd5b50610352600480360381019061034d9190612580565b6109fd565b60405161035f9190612684565b60405180910390f35b34801561037457600080fd5b5061038f600480360381019061038a9190612580565b610a6e565b60405161039c91906125ee565b60405180910390f35b3480156103b157600080fd5b506103cc60048036038101906103c79190612580565b610af4565b005b3480156103da57600080fd5b506103f560048036038101906103f091906126f2565b610b3a565b6040516104029190612684565b60405180910390f35b34801561041757600080fd5b50610420610bf1565b005b34801561042e57600080fd5b50610437610c05565b60405161044491906125ee565b60405180910390f35b34801561045957600080fd5b50610462610c2f565b60405161046f9190612528565b60405180910390f35b34801561048457600080fd5b5061049f600480360381019061049a919061274b565b610cc1565b005b3480156104ad57600080fd5b506104c860048036038101906104c391906128c0565b610cd7565b005b3480156104d657600080fd5b506104f160048036038101906104ec9190612580565b610d39565b6040516104fe9190612528565b60405180910390f35b34801561051357600080fd5b5061052e60048036038101906105299190612943565b610da1565b60405161053b919061247d565b60405180910390f35b34801561055057600080fd5b5061056b600480360381019061056691906126f2565b610e35565b005b600061057882610eb8565b9050919050565b60606000805461058e906129b2565b80601f01602080910402602001604051908101604052809291908181526020018280546105ba906129b2565b80156106075780601f106105dc57610100808354040283529160200191610607565b820191906000526020600020905b8154815290600101906020018083116105ea57829003601f168201915b5050505050905090565b600061061c82610f32565b6004600083815260200190815260200160002060009054906101000a900473ffffffffffffffffffffffffffffffffffffffff169050919050565b600061066282610a6e565b90508073ffffffffffffffffffffffffffffffffffffffff168373ffffffffffffffffffffffffffffffffffffffff16036106d2576040517f08c379a00000000000000000000000000000000000000000000000000000000081526004016106c990612a55565b60405180910390fd5b8073ffffffffffffffffffffffffffffffffffffffff166106f1610f7d565b73ffffffffffffffffffffffffffffffffffffffff161480610720575061071f8161071a610f7d565b610da1565b5b61075f576040517f08c379a000000000000000000000000000000000000000000000000000000000815260040161075690612ae7565b60405180910390fd5b6107698383610f85565b505050565b6000600880549050905090565b61078c610786610f7d565b8261103e565b6107cb576040517f08c379a00000000000000000000000000000000000000000000000000000000081526004016107c290612b79565b60405180910390fd5b6107d68383836110d3565b505050565b60006107e683610b3a565b8210610827576040517f08c379a000000000000000000000000000000000000000000000000000000000815260040161081e90612c0b565b60405180910390fd5b600660008473ffffffffffffffffffffffffffffffffffffffff1673ffffffffffffffffffffffffffffffffffffffff168152602001908152602001600020600083815260200190815260200160002054905092915050565b600c5481565b61088e6113cc565b600047116108d1576040517f08c379a00000000000000000000000000000000000000000000000000000000081526004016108c890612c77565b60405180910390fd5b6108d9610c05565b73ffffffffffffffffffffffffffffffffffffffff166108fc479081150290604051600060405180830381858888f1935050505015801561091e573d6000803e3d6000fd5b50565b600c5461092c61076e565b1061096c576040517f08c379a000000000000000000000000000000000000000000000000000000000815260040161096390612ce3565b60405180910390fd5b600061097782610b3a565b146109b7576040517f08c379a00000000000000000000000000000000000000000000000000000000081526004016109ae90612d4f565b60405180910390fd5b60006109c3600b61144a565b90506109cf600b611458565b6109d9828261146e565b5050565b6109f883838360405180602001604052806000815250610cd7565b505050565b6000610a0761076e565b8210610a48576040517f08c379a0000000000000000000000000000000000000000000000000000000008152600401610a3f90612de1565b60405180910390fd5b60088281548110610a5c57610a5b612e01565b5b90600052602060002001549050919050565b600080610a7a8361148c565b9050600073ffffffffffffffffffffffffffffffffffffffff168173ffffffffffffffffffffffffffffffffffffffff1603610aeb576040517f08c379a0000000000000000000000000000000000000000000000000000000008152600401610ae290612e7c565b60405180910390fd5b80915050919050565b610afc6113cc565b6000805b82811015610b3557610b12600b61144a565b9150610b1e600b611458565b610b28338361146e565b8080600101915050610b00565b505050565b60008073ffffffffffffffffffffffffffffffffffffffff168273ffffffffffffffffffffffffffffffffffffffff1603610baa576040517f08c379a0000000000000000000000000000000000000000000000000000000008152600401610ba190612f0e565b60405180910390fd5b600360008373ffffffffffffffffffffffffffffffffffffffff1673ffffffffffffffffffffffffffffffffffffffff168152602001908152602001600020549050919050565b610bf96113cc565b610c0360006114c9565b565b6000600a60009054906101000a900473ffffffffffffffffffffffffffffffffffffffff16905090565b606060018054610c3e906129b2565b80601f0160208091040260200160405190810160405280929190818152602001828054610c6a906129b2565b8015610cb75780601f10610c8c57610100808354040283529160200191610cb7565b820191906000526020600020905b815481529060010190602001808311610c9a57829003601f168201915b5050505050905090565b610cd3610ccc610f7d565b838361158f565b5050565b610ce8610ce2610f7d565b8361103e565b610d27576040517f08c379a0000000000000000000000000000000000000000000000000000000008152600401610d1e90612b79565b60405180910390fd5b610d33848484846116fb565b50505050565b6060610d4482610f32565b6000610d4e611757565b90506000815111610d6e5760405180602001604052806000815250610d99565b80610d7884611777565b604051602001610d89929190612f6a565b6040516020818303038152906040525b915050919050565b6000600560008473ffffffffffffffffffffffffffffffffffffffff1673ffffffffffffffffffffffffffffffffffffffff16815260200190815260200160002060008373ffffffffffffffffffffffffffffffffffffffff1673ffffffffffffffffffffffffffffffffffffffff16815260200190815260200160002060009054906101000a900460ff16905092915050565b610e3d6113cc565b600073ffffffffffffffffffffffffffffffffffffffff168173ffffffffffffffffffffffffffffffffffffffff1603610eac576040517f08c379a0000000000000000000000000000000000000000000000000000000008152600401610ea390613000565b60405180910390fd5b610eb5816114c9565b50565b60007f780e9d63000000000000000000000000000000000000000000000000000000007bffffffffffffffffffffffffffffffffffffffffffffffffffffffff1916827bffffffffffffffffffffffffffffffffffffffffffffffffffffffff19161480610f2b5750610f2a82611845565b5b9050919050565b610f3b81611927565b610f7a576040517f08c379a0000000000000000000000000000000000000000000000000000000008152600401610f7190612e7c565b60405180910390fd5b50565b600033905090565b816004600083815260200190815260200160002060006101000a81548173ffffffffffffffffffffffffffffffffffffffff021916908373ffffffffffffffffffffffffffffffffffffffff160217905550808273ffffffffffffffffffffffffffffffffffffffff16610ff883610a6e565b73ffffffffffffffffffffffffffffffffffffffff167f8c5be1e5ebec7d5bd14f71427d1e84f3dd0314c0f7b2291e5b200ac8c7c3b92560405160405180910390a45050565b60008061104a83610a6e565b90508073ffffffffffffffffffffffffffffffffffffffff168473ffffffffffffffffffffffffffffffffffffffff16148061108c575061108b8185610da1565b5b806110ca57508373ffffffffffffffffffffffffffffffffffffffff166110b284610611565b73ffffffffffffffffffffffffffffffffffffffff16145b91505092915050565b8273ffffffffffffffffffffffffffffffffffffffff166110f382610a6e565b73ffffffffffffffffffffffffffffffffffffffff1614611149576040517f08c379a000000000000000000000000000000000000000000000000000000000815260040161114090613092565b60405180910390fd5b600073ffffffffffffffffffffffffffffffffffffffff168273ffffffffffffffffffffffffffffffffffffffff16036111b8576040517f08c379a00000000000000000000000000000000000000000000000000000000081526004016111af90613124565b60405180910390fd5b6111c58383836001611968565b8273ffffffffffffffffffffffffffffffffffffffff166111e582610a6e565b73ffffffffffffffffffffffffffffffffffffffff161461123b576040517f08c379a000000000000000000000000000000000000000000000000000000000815260040161123290613092565b60405180910390fd5b6004600082815260200190815260200160002060006101000a81549073ffffffffffffffffffffffffffffffffffffffff02191690556001600360008573ffffffffffffffffffffffffffffffffffffffff1673ffffffffffffffffffffffffffffffffffffffff168152602001908152602001600020600082825403925050819055506001600360008473ffffffffffffffffffffffffffffffffffffffff1673ffffffffffffffffffffffffffffffffffffffff16815260200190815260200160002060008282540192505081905550816002600083815260200190815260200160002060006101000a81548173ffffffffffffffffffffffffffffffffffffffff021916908373ffffffffffffffffffffffffffffffffffffffff160217905550808273ffffffffffffffffffffffffffffffffffffffff168473ffffffffffffffffffffffffffffffffffffffff167fddf252ad1be2c89b69c2b068fc378daa952ba7f163c4a11628f55a4df523b3ef60405160405180910390a46113c7838383600161197a565b505050565b6113d4610f7d565b73ffffffffffffffffffffffffffffffffffffffff166113f2610c05565b73ffffffffffffffffffffffffffffffffffffffff1614611448576040517f08c379a000000000000000000000000000000000000000000000000000000000815260040161143f90613190565b60405180910390fd5b565b600081600001549050919050565b6001816000016000828254019250508190555050565b611488828260405180602001604052806000815250611980565b5050565b60006002600083815260200190815260200160002060009054906101000a900473ffffffffffffffffffffffffffffffffffffffff169050919050565b6000600a60009054906101000a900473ffffffffffffffffffffffffffffffffffffffff16905081600a60006101000a81548173ffffffffffffffffffffffffffffffffffffffff021916908373ffffffffffffffffffffffffffffffffffffffff1602179055508173ffffffffffffffffffffffffffffffffffffffff168173ffffffffffffffffffffffffffffffffffffffff167f8be0079c531659141344cd1fd0a4f28419497f9722a3daafe3b4186f6b6457e060405160405180910390a35050565b8173ffffffffffffffffffffffffffffffffffffffff168373ffffffffffffffffffffffffffffffffffffffff16036115fd576040517f08c379a00000000000000000000000000000000000000000000000000000000081526004016115f4906131fc565b60405180910390fd5b80600560008573ffffffffffffffffffffffffffffffffffffffff1673ffffffffffffffffffffffffffffffffffffffff16815260200190815260200160002060008473ffffffffffffffffffffffffffffffffffffffff1673ffffffffffffffffffffffffffffffffffffffff16815260200190815260200160002060006101000a81548160ff0219169083151502179055508173ffffffffffffffffffffffffffffffffffffffff168373ffffffffffffffffffffffffffffffffffffffff167f17307eab39ab6107e8899845ad3d59bd9653f200f220920489ca2b5937696c31836040516116ee919061247d565b60405180910390a3505050565b6117068484846110d3565b611712848484846119db565b611751576040517f08c379a00000000000000000000000000000000000000000000000000000000081526004016117489061328e565b60405180910390fd5b50505050565b60606040518060600160405280602181526020016135bd60219139905090565b60606000600161178684611b62565b01905060008167ffffffffffffffff8111156117a5576117a4612795565b5b6040519080825280601f01601f1916602001820160405280156117d75781602001600182028036833780820191505090505b509050600082602001820190505b60011561183a578080600190039150507f3031323334353637383961626364656600000000000000000000000000000000600a86061a8153600a858161182e5761182d6132ae565b5b049450600085036117e5575b819350505050919050565b60007f80ac58cd000000000000000000000000000000000000000000000000000000007bffffffffffffffffffffffffffffffffffffffffffffffffffffffff1916827bffffffffffffffffffffffffffffffffffffffffffffffffffffffff1916148061191057507f5b5e139f000000000000000000000000000000000000000000000000000000007bffffffffffffffffffffffffffffffffffffffffffffffffffffffff1916827bffffffffffffffffffffffffffffffffffffffffffffffffffffffff1916145b80611920575061191f82611cb5565b5b9050919050565b60008073ffffffffffffffffffffffffffffffffffffffff166119498361148c565b73ffffffffffffffffffffffffffffffffffffffff1614159050919050565b61197484848484611d1f565b50505050565b50505050565b61198a8383611e7d565b61199760008484846119db565b6119d6576040517f08c379a00000000000000000000000000000000000000000000000000000000081526004016119cd9061328e565b60405180910390fd5b505050565b60006119fc8473ffffffffffffffffffffffffffffffffffffffff1661209a565b15611b55578373ffffffffffffffffffffffffffffffffffffffff1663150b7a02611a25610f7d565b8786866040518563ffffffff1660e01b8152600401611a479493929190613332565b6020604051808303816000875af1925050508015611a8357506040513d601f19601f82011682018060405250810190611a809190613393565b60015b611b05573d8060008114611ab3576040519150601f19603f3d011682016040523d82523d6000602084013e611ab8565b606091505b506000815103611afd576040517f08c379a0000000000000000000000000000000000000000000000000000000008152600401611af49061328e565b60405180910390fd5b805181602001fd5b63150b7a0260e01b7bffffffffffffffffffffffffffffffffffffffffffffffffffffffff1916817bffffffffffffffffffffffffffffffffffffffffffffffffffffffff191614915050611b5a565b600190505b949350505050565b600080600090507a184f03e93ff9f4daa797ed6e38ed64bf6a1f0100000000000000008310611bc0577a184f03e93ff9f4daa797ed6e38ed64bf6a1f0100000000000000008381611bb657611bb56132ae565b5b0492506040810190505b6d04ee2d6d415b85acef81000000008310611bfd576d04ee2d6d415b85acef81000000008381611bf357611bf26132ae565b5b0492506020810190505b662386f26fc100008310611c2c57662386f26fc100008381611c2257611c216132ae565b5b0492506010810190505b6305f5e1008310611c55576305f5e1008381611c4b57611c4a6132ae565b5b0492506008810190505b6127108310611c7a576127108381611c7057611c6f6132ae565b5b0492506004810190505b60648310611c9d5760648381611c9357611c926132ae565b5b0492506002810190505b600a8310611cac576001810190505b80915050919050565b60007f01ffc9a7000000000000000000000000000000000000000000000000000000007bffffffffffffffffffffffffffffffffffffffffffffffffffffffff1916827bffffffffffffffffffffffffffffffffffffffffffffffffffffffff1916149050919050565b611d2b848484846120bd565b6001811115611d6f576040517f08c379a0000000000000000000000000000000000000000000000000000000008152600401611d6690613432565b60405180910390fd5b6000829050600073ffffffffffffffffffffffffffffffffffffffff168573ffffffffffffffffffffffffffffffffffffffff1603611db657611db1816120c3565b611df5565b8373ffffffffffffffffffffffffffffffffffffffff168573ffffffffffffffffffffffffffffffffffffffff1614611df457611df3858261210c565b5b5b600073ffffffffffffffffffffffffffffffffffffffff168473ffffffffffffffffffffffffffffffffffffffff1603611e3757611e3281612279565b611e76565b8473ffffffffffffffffffffffffffffffffffffffff168473ffffffffffffffffffffffffffffffffffffffff1614611e7557611e74848261234a565b5b5b5050505050565b600073ffffffffffffffffffffffffffffffffffffffff168273ffffffffffffffffffffffffffffffffffffffff1603611eec576040517f08c379a0000000000000000000000000000000000000000000000000000000008152600401611ee39061349e565b60405180910390fd5b611ef581611927565b15611f35576040517f08c379a0000000000000000000000000000000000000000000000000000000008152600401611f2c9061350a565b60405180910390fd5b611f43600083836001611968565b611f4c81611927565b15611f8c576040517f08c379a0000000000000000000000000000000000000000000000000000000008152600401611f839061350a565b60405180910390fd5b6001600360008473ffffffffffffffffffffffffffffffffffffffff1673ffffffffffffffffffffffffffffffffffffffff16815260200190815260200160002060008282540192505081905550816002600083815260200190815260200160002060006101000a81548173ffffffffffffffffffffffffffffffffffffffff021916908373ffffffffffffffffffffffffffffffffffffffff160217905550808273ffffffffffffffffffffffffffffffffffffffff16600073ffffffffffffffffffffffffffffffffffffffff167fddf252ad1be2c89b69c2b068fc378daa952ba7f163c4a11628f55a4df523b3ef60405160405180910390a461209660008383600161197a565b5050565b6000808273ffffffffffffffffffffffffffffffffffffffff163b119050919050565b50505050565b6008805490506009600083815260200190815260200160002081905550600881908060018154018082558091505060019003906000526020600020016000909190919091505550565b6000600161211984610b3a565b6121239190613559565b9050600060076000848152602001908152602001600020549050818114612208576000600660008673ffffffffffffffffffffffffffffffffffffffff1673ffffffffffffffffffffffffffffffffffffffff168152602001908152602001600020600084815260200190815260200160002054905080600660008773ffffffffffffffffffffffffffffffffffffffff1673ffffffffffffffffffffffffffffffffffffffff168152602001908152602001600020600084815260200190815260200160002081905550816007600083815260200190815260200160002081905550505b6007600084815260200190815260200160002060009055600660008573ffffffffffffffffffffffffffffffffffffffff1673ffffffffffffffffffffffffffffffffffffffff16815260200190815260200160002060008381526020019081526020016000206000905550505050565b6000600160088054905061228d9190613559565b90506000600960008481526020019081526020016000205490506000600883815481106122bd576122bc612e01565b5b9060005260206000200154905080600883815481106122df576122de612e01565b5b90600052602060002001819055508160096000838152602001908152602001600020819055506009600085815260200190815260200160002060009055600880548061232e5761232d61358d565b5b6001900381819060005260206000200160009055905550505050565b600061235583610b3a565b905081600660008573ffffffffffffffffffffffffffffffffffffffff1673ffffffffffffffffffffffffffffffffffffffff168152602001908152602001600020600083815260200190815260200160002081905550806007600084815260200190815260200160002081905550505050565b6000604051905090565b600080fd5b600080fd5b60007fffffffff0000000000000000000000000000000000000000000000000000000082169050919050565b612412816123dd565b811461241d57600080fd5b50565b60008135905061242f81612409565b92915050565b60006020828403121561244b5761244a6123d3565b5b600061245984828501612420565b91505092915050565b60008115159050919050565b61247781612462565b82525050565b6000602082019050612492600083018461246e565b92915050565b600081519050919050565b600082825260208201905092915050565b60005b838110156124d25780820151818401526020810190506124b7565b60008484015250505050565b6000601f19601f8301169050919050565b60006124fa82612498565b61250481856124a3565b93506125148185602086016124b4565b61251d816124de565b840191505092915050565b6000602082019050818103600083015261254281846124ef565b905092915050565b6000819050919050565b61255d8161254a565b811461256857600080fd5b50565b60008135905061257a81612554565b92915050565b600060208284031215612596576125956123d3565b5b60006125a48482850161256b565b91505092915050565b600073ffffffffffffffffffffffffffffffffffffffff82169050919050565b60006125d8826125ad565b9050919050565b6125e8816125cd565b82525050565b600060208201905061260360008301846125df565b92915050565b612612816125cd565b811461261d57600080fd5b50565b60008135905061262f81612609565b92915050565b6000806040838503121561264c5761264b6123d3565b5b600061265a85828601612620565b925050602061266b8582860161256b565b9150509250929050565b61267e8161254a565b82525050565b60006020820190506126996000830184612675565b92915050565b6000806000606084860312156126b8576126b76123d3565b5b60006126c686828701612620565b93505060206126d786828701612620565b92505060406126e88682870161256b565b9150509250925092565b600060208284031215612708576127076123d3565b5b600061271684828501612620565b91505092915050565b61272881612462565b811461273357600080fd5b50565b6000813590506127458161271f565b92915050565b60008060408385031215612762576127616123d3565b5b600061277085828601612620565b925050602061278185828601612736565b9150509250929050565b600080fd5b600080fd5b7f4e487b7100000000000000000000000000000000000000000000000000000000600052604160045260246000fd5b6127cd826124de565b810181811067ffffffffffffffff821117156127ec576127eb612795565b5b80604052505050565b60006127ff6123c9565b905061280b82826127c4565b919050565b600067ffffffffffffffff82111561282b5761282a612795565b5b612834826124de565b9050602081019050919050565b82818337600083830152505050565b600061286361285e84612810565b6127f5565b90508281526020810184848401111561287f5761287e612790565b5b61288a848285612841565b509392505050565b600082601f8301126128a7576128a661278b565b5b81356128b7848260208601612850565b91505092915050565b600080600080608085870312156128da576128d96123d3565b5b60006128e887828801612620565b94505060206128f987828801612620565b935050604061290a8782880161256b565b925050606085013567ffffffffffffffff81111561292b5761292a6123d8565b5b61293787828801612892565b91505092959194509250565b6000806040838503121561295a576129596123d3565b5b600061296885828601612620565b925050602061297985828601612620565b9150509250929050565b7f4e487b7100000000000000000000000000000000000000000000000000000000600052602260045260246000fd5b600060028204905060018216806129ca57607f821691505b6020821081036129dd576129dc612983565b5b50919050565b7f4552433732313a20617070726f76616c20746f2063757272656e74206f776e6560008201527f7200000000000000000000000000000000000000000000000000000000000000602082015250565b6000612a3f6021836124a3565b9150612a4a826129e3565b604082019050919050565b60006020820190508181036000830152612a6e81612a32565b9050919050565b7f4552433732313a20617070726f76652063616c6c6572206973206e6f7420746f60008201527f6b656e206f776e6572206f7220617070726f76656420666f7220616c6c000000602082015250565b6000612ad1603d836124a3565b9150612adc82612a75565b604082019050919050565b60006020820190508181036000830152612b0081612ac4565b9050919050565b7f4552433732313a2063616c6c6572206973206e6f7420746f6b656e206f776e6560008201527f72206f7220617070726f76656400000000000000000000000000000000000000602082015250565b6000612b63602d836124a3565b9150612b6e82612b07565b604082019050919050565b60006020820190508181036000830152612b9281612b56565b9050919050565b7f455243373231456e756d657261626c653a206f776e657220696e646578206f7560008201527f74206f6620626f756e6473000000000000000000000000000000000000000000602082015250565b6000612bf5602b836124a3565b9150612c0082612b99565b604082019050919050565b60006020820190508181036000830152612c2481612be8565b9050919050565b7f4e6f7468696e6720746f2077697468647261772e000000000000000000000000600082015250565b6000612c616014836124a3565b9150612c6c82612c2b565b602082019050919050565b60006020820190508181036000830152612c9081612c54565b9050919050565b7f49206861766520746f6f206d616e7920667269656e6473000000000000000000600082015250565b6000612ccd6017836124a3565b9150612cd882612c97565b602082019050919050565b60006020820190508181036000830152612cfc81612cc0565b9050919050565b7f57652061726520616c726561647920667269656e647300000000000000000000600082015250565b6000612d396016836124a3565b9150612d4482612d03565b602082019050919050565b60006020820190508181036000830152612d6881612d2c565b9050919050565b7f455243373231456e756d657261626c653a20676c6f62616c20696e646578206f60008201527f7574206f6620626f756e64730000000000000000000000000000000000000000602082015250565b6000612dcb602c836124a3565b9150612dd682612d6f565b604082019050919050565b60006020820190508181036000830152612dfa81612dbe565b9050919050565b7f4e487b7100000000000000000000000000000000000000000000000000000000600052603260045260246000fd5b7f4552433732313a20696e76616c696420746f6b656e2049440000000000000000600082015250565b6000612e666018836124a3565b9150612e7182612e30565b602082019050919050565b60006020820190508181036000830152612e9581612e59565b9050919050565b7f4552433732313a2061646472657373207a65726f206973206e6f74206120766160008201527f6c6964206f776e65720000000000000000000000000000000000000000000000602082015250565b6000612ef86029836124a3565b9150612f0382612e9c565b604082019050919050565b60006020820190508181036000830152612f2781612eeb565b9050919050565b600081905092915050565b6000612f4482612498565b612f4e8185612f2e565b9350612f5e8185602086016124b4565b80840191505092915050565b6000612f768285612f39565b9150612f828284612f39565b91508190509392505050565b7f4f776e61626c653a206e6577206f776e657220697320746865207a65726f206160008201527f6464726573730000000000000000000000000000000000000000000000000000602082015250565b6000612fea6026836124a3565b9150612ff582612f8e565b604082019050919050565b6000602082019050818103600083015261301981612fdd565b9050919050565b7f4552433732313a207472616e736665722066726f6d20696e636f72726563742060008201527f6f776e6572000000000000000000000000000000000000000000000000000000602082015250565b600061307c6025836124a3565b915061308782613020565b604082019050919050565b600060208201905081810360008301526130ab8161306f565b9050919050565b7f4552433732313a207472616e7366657220746f20746865207a65726f2061646460008201527f7265737300000000000000000000000000000000000000000000000000000000602082015250565b600061310e6024836124a3565b9150613119826130b2565b604082019050919050565b6000602082019050818103600083015261313d81613101565b9050919050565b7f4f776e61626c653a2063616c6c6572206973206e6f7420746865206f776e6572600082015250565b600061317a6020836124a3565b915061318582613144565b602082019050919050565b600060208201905081810360008301526131a98161316d565b9050919050565b7f4552433732313a20617070726f766520746f2063616c6c657200000000000000600082015250565b60006131e66019836124a3565b91506131f1826131b0565b602082019050919050565b60006020820190508181036000830152613215816131d9565b9050919050565b7f4552433732313a207472616e7366657220746f206e6f6e20455243373231526560008201527f63656976657220696d706c656d656e7465720000000000000000000000000000602082015250565b60006132786032836124a3565b91506132838261321c565b604082019050919050565b600060208201905081810360008301526132a78161326b565b9050919050565b7f4e487b7100000000000000000000000000000000000000000000000000000000600052601260045260246000fd5b600081519050919050565b600082825260208201905092915050565b6000613304826132dd565b61330e81856132e8565b935061331e8185602086016124b4565b613327816124de565b840191505092915050565b600060808201905061334760008301876125df565b61335460208301866125df565b6133616040830185612675565b818103606083015261337381846132f9565b905095945050505050565b60008151905061338d81612409565b92915050565b6000602082840312156133a9576133a86123d3565b5b60006133b78482850161337e565b91505092915050565b7f455243373231456e756d657261626c653a20636f6e736563757469766520747260008201527f616e7366657273206e6f7420737570706f727465640000000000000000000000602082015250565b600061341c6035836124a3565b9150613427826133c0565b604082019050919050565b6000602082019050818103600083015261344b8161340f565b9050919050565b7f4552433732313a206d696e7420746f20746865207a65726f2061646472657373600082015250565b60006134886020836124a3565b915061349382613452565b602082019050919050565b600060208201905081810360008301526134b78161347b565b9050919050565b7f4552433732313a20746f6b656e20616c7265616479206d696e74656400000000600082015250565b60006134f4601c836124a3565b91506134ff826134be565b602082019050919050565b60006020820190508181036000830152613523816134e7565b9050919050565b7f4e487b7100000000000000000000000000000000000000000000000000000000600052601160045260246000fd5b60006135648261254a565b915061356f8361254a565b92508282039050818111156135875761358661352a565b5b92915050565b7f4e487b7100000000000000000000000000000000000000000000000000000000600052603160045260246000fdfe68747470733a2f2f6170692e627261696e66726965642e78797a2f746f6b656e73a2646970667358221220bb30cf36f2f33259dbac508309c4026ca33df31c1d8a446311f3a623a4a4b89a64736f6c63430008120033",
  "linkReferences": {},
  "deployedLinkReferences": {}
}